:060000000C94730C0C943B
:1000060000000C9400000C9400000C9400000C946A
:1000160000000C9400000C9400000C9400000C945A
:1000260000000C9400000C9400000C9400000C944A
:1000360000000C9400000C9400000C9400000C943A
:1000460000000C9400000C9400000C9400001D7637
:1000560030002500A900FFFFFFFFFFFFFFFFFFFFA6
:10006600FFFFFFFFFFFFFFFFFFFFFFFFFFFFFFFF9A
:10007600FFFFFFFFFFFFFFFFFFFFFFFFFFFFFFFF8A
:10008600FFFFFFFFFFFFFFFFFFFFFFFFFFFFFFFF7A
:10009600FFFFFFFFFFFFFFFFFFFFFFFFFFFFFFFF6A
:1006F600FFFFFFFFFFFFFFFFFFFFFFFFF00007FE0B
:100706000001FD80006D60001FFC0003FB0000DAA5
:10071600C0003FF80007B60001B580006FF0000F7B
:100726006FF0000000000000000021000000000043
:100736000042000042000000000004840000840023
:1007460000000000090FF000000000010000002179
:1007560020000000000200000042400000000004EB
:10076600840000848000000000090FF0108000045F
:100776002000010C01202100000840000218024060
:100786004200001080840430048084000021010FA0
:10079600F0008000000000010001200100000000C0
:1007A6004002000240000000000084040004000033
:1007B600000001010FF01000000000000100012000
:1007C6002000000800000200020040000010008423
:1007D6000400040080000021010FF080800000006A
:1007E6000000002021000000000000000040020080
:1007F60000000004048000000000000000080FF064
:100806008080000000012400202101000000400239
:1008160048084042020000008404900080840000E2
:100826000001080FF0008004002001000C002001E8
:1008360000080040024018004002001000800480BA
:1008460030008004002001000FF00080000000004E
:10085600000000200100000000020000004000002F
:10086600000000040000000000000001000F00006E
:100876000000000000000000000000000000000072
:100886000000000000000000000000000000000062
:100896000000000000000000000000000000000052
:1008A6000000000000000000000000000000000042
:1008B6000000000000000000000000000000000032
:1008C6000000000000000000000000000000000022
:1008D6000000000000000000000000000000000012
:1008E6000000000000000000000000000000000002
:1008F60000000000000000000000000000000000F2
:1009060000000000000000000000000000000000E1
:1009160000000000000000000000000000000000D1
:1009260000000000000000000000000000000000C1
:1009360000000000000000000000000000000000B1
:1009460000000000000000000000000000000000A1
:100956000000000000000000000000000000000091
:100966000000000000000000000000000000000081
:100976000000000000000000000000000000000071
:100986000000000000000000000000000000000061
:100996000000000000000000000000000000000051
:1009A6000000000000000000000000000000000041
:1009B6000000000000000000000000000000000031
:1009C60000000000000000000000000002004000DF
:1009D6000000000000000000000000000000000011
:1009E6000000000000000000000000000000000001
:1009F6000001BF80000000000000000000000000B1
:100A060000000000000000000000000000000000E0
:100A160000000000000000E70000000000000000E9
:100A260000000000000000000000000000000000C0
:100A360000000000000000000000000008000000A8
:100A460000000000000000000000000000000000A0
:100A56000000000000000000000000000000000090
:100A6600401C000000000000000000000000000024
:100A76000000000000000000000000000000000070
:100A86000000000001803C01800000000000000022
:100A96000000000000000000000000000000000050
:100AA60000000000000000000003003C00C0000041
:100AB6000000000000000000000000000000000030
:100AC60000000000000000000000000000000620FA
:100AD6003C04600000000000000000000000000070
:100AE6000000000000000000000000000000000000
:100AF6000000000C203C0430000000000000000054
:100B060000000000000000000000000000000000DF
:100B160000000000000000001C403C0238000000FD
:100B260000000000000000000000000000000000BF
:100B36000000000000000000000000000038C03C7B
:100B4600031C000000000000000000000000000080
:100B5600000000000000000000000000000000008F
:100B6600000078C03C031E000000000000000000EA
:100B7600000000000000000000000000000000006F
:100B86000000000000000070C03C038E0000000062
:100B9600000000000000000000000000000000004F
:100BA600000000000000000000000000F1803C0191
:100BB6008F000000000000000000000000000000A0
:100BC600000000000000000000000000000000001F
:100BD60000E1803C018700000000000000000000EA
:100BE60000000000000000000000000000000000FF
:100BF600000000000000E1803C01870000000000CA
:100C060000000000000000000000000000000000DE
:100C16000000000000000000000000E1803C0187A9
:100C260000000000000000000000000000000000BE
:100C360000000000000000000000000000000001AD
:100C4600E3803C01C78000000000000000000000B7
:100C5600000000000000000000000000000000008E
:100C66000000000001E3803C01C780000000000096
:100C7600000000000000000000000000000000006E
:100C860000000000000000000001C3C03C03C38058
:100C9600000000000000000000000000000000004E
:100CA600000000000000000000000000000001C37A
:100CB600C03C03838000000000000000000000002C
:100CC600000000000000000000000000000000001E
:100CD60000000001C1C03C0383800000000000004A
:100CE60000000000000000000000000000000000FE
:100CF600000000000000000000E1C03C038380000B
:100D060000000000000000000000000000000000DD
:100D16000000000000000000000000000000E1E00C
:100D26003C078700000000000000000000000000F3
:100D360000000000000000000000000000000000AD
:100D4600000000E1E03C0787000000000000000012
:100D5600000000000000000000000000000000008D
:100D66000000000000000000E0E03C070700000073
:100D7600000000000000000000000000000000006D
:100D86000000000000000000000000000060F03CD1
:100D96000F06000000000000000000000000000038
:100DA600000000000000000000000000000000003D
:100DB600000060783C1E0E000000000000000000ED
:100DC600000000000000000000000000000000001D
:100DD6000000000000000030783C1E0C00000000FF
:100DE60000000000000000000000000000000000FD
:100DF600000000000000000000000000103C3C3C29
:100E060008000000000000000000000000000000D4
:100E160000000000000000000000000000000000CC
:100E260000081E3C7C1000000000000000000000CE
:100E360000000000000000000000000000000000AC
:100E4600000000000000000F3CF800000000000059
:100E5600000000000000000000000000000000008C
:100E660000000000000000000000000007BDE000D8
:100E7600000000000000000000000000000000006C
:100E8600000000000000000000000000000000005C
:100E96000003FFC00000000000000000000000008A
:100EA600000000000000000000000000000000003C
:100EB60000000000000001FF8000000000000000AC
:100EC600000000000000000000000000000000001C
:100ED600000000000000000000000000FF0000000D
:100EE60000000000000000000000000000000000FC
:100EF60000000000000000000000000000000000EC
:100F060000FF0000000000000000000000000000DC
:100F160000000000000000000000000000000000CB
:100F260000000000001FFFF00000000000000000AD
:100F360000000000000000000000000000000000AB
:100F46000000000000000000000000180000000083
:100F5600000000000000000000000000000000008B
:100F6600000000000000000000000000000000007B
:100F76001800000000000000000000000000000053
:100F8600000000000000000000000000000000005B
:100F9600000000000000000000000000000000004B
:100FA600000000000000000000000000000000003B
:100FB600000000000000000000000000000000002B
:100FC600000000000000000000000000000000001B
:100FD600000000000000000000000000000000000B
:100FE60000000000000000000000000000000000FB
:100FF60000000000000000000000000000000000EB
:1010060000000000000000000000000000000000DA
:1010160000000000000000000000000000000000CA
:1010260000000000000000000000000000000000BA
:1010360000000000000000000000000000000000AA
:10104600000000000000000000000000000000009A
:10105600000000000000000000000000000000008A
:10106600000000000000000000000000000000007A
:10107600000000000000000000000000000000006A
:10108600000000000000000000000000000000005A
:10109600000000000000000000000000000000004A
:1010A6000000000000000000000000F000800400C6
:1010B6002001000C0020010008004002001800403A
:1010C6000200100080040030008004002001000FA0
:1010D600FFFFFFFFFFFFFFFFFFFFFFFFFFFFFFFF1A
:1010E600FFFFFFFFFFFFFFFFFFFFFFFFFFFFFFFF0A
:1010F600FFFFFFFFFFF00006B60001AD80002D20C8
:10110600000D6C00035B00005A40001AD00004B4C6
:101116000000B580002D6000096FF0000484000116
:101126000400002D2000090800024A00005A400071
:1011360010100004940000B48000202000096FF70E
:10114600F3F486EE7725F3DF2D2AE7D90D9CEE4BD7
:10115600E7BEDA55CFA01FBFD4B7CEBD34AF9F4090
:101166003E7FA96FF0108084042024010C0D2021FD
:10117600010808404A02181A400200101080940420
:1011860030248004002021016FF0108084060025A1
:10119600018C0D202101080C404A03181A40420018
:1011A600101080940630248084002021016FF68080
:1011B6008404A001012C0C202D01080940020258CC
:1011C60018C05A021012808404B0318034042025DD
:1011D60001080FF6808604802101240C202D0108C9
:1011E600084042025818405A021010808404B03059
:1011F60080A404202901080FFFFFFFFFFFFFFFFF68
:10120600FFFFFFFFFFFFFFFFFFFFFFFFFFFFFFFFE8
:10121600FFFFFFFFFFFFFFFFFFFFFFFFFFFFFFFFD8
:10122600FFFFFFFFFFFFFFFFFFFFFFFFFFFFFFFFC8
:10123600FFFFFFFFFFFFFFFFFFFFFFFFFFFFFFFFB8
:1018C600FFFFFF001027E80364000A000100001074
:1018D600000110000100751802000400DC18000069
:1018E600F894EE27ECBBF1E0FBBFEBBFE5BF8DE064
:1018F600A2E0BB27ED938A95E9F780E098E0A0E6A1
:10190600ED930197E9F7EEEDF8E185919591009752
:1019160061F0A591B59105901590BF01F001059074
:101926000D920197E1F7FB01F0CFEFE5EDBFE8E09F
:10193600EEBFC0E6D2E00C94A00CE0E0EABBEBBB45
:10194600E7BBE8BBE4BBE5BBE1BBE2BBE3BFE2BF91
:10195600ECBFEFBDEEBDEDBDECBDE7BDE6BDEBBD3D
:10196600EABDE9BDE8BDE2BDE5BDE4BDE3BDE9BF55
:10197600E5BFE4BFEBB9E8E0EAB9E6E8E0BDE0E0E0
:10198600E0BDECE0E9B9E0E8E8B9E0E0E0BFE6B9DF
:10199600EDB9E6BF8299FECF00E010E0041515050B
:1019A60054F48799FECFF801EC5AFF4FA4910BD05F
:1019B6000F5F1F4FF3CF0E94ED0C0E94ED0C0E94AB
:1019C600ED0CE8CFFFCFAA935D9BFECFE881ECB983
:1019D60021960895ADE00E94E60CAAE00C94E60C70
:00000001FF
